:020000040000FA
:10000000582E0020C1030000C9030000CB030000EC
:10001000CD030000CF030000D1030000000000006A
:1000200000000000000000000000000001250000AA
:10003000D503000000000000912400004D260000C0
:10004000DB030000DD030000DF030000E10300002C
:10005000E3030000E5030000E7030000E9030000FC
:10006000EB030000ED030000EF030000F1030000CC
:10007000F3030000F5030000F7030000F90300009C
:10008000FB030000FD030000FF030000010400006B
:100090000304000005040000070400000904000038
:1000A0000B0400000D0400000F0400001104000008
:1000B00013040000150400001704000019040000D8
:1000C0001B0400001D0400001F04000021040000A8
:1000D0002304000025040000270400002904000078
:1000E0002B0400002D040000000000002F0400007D
:1000F0003104000033040000350400003704000020
:10010000390400003B0400003D0400003F040000EF
:100110000000000000000000410400004304000053
:100120004504000047040000490400004B0400009F
:100130004D0400004F04000051040000530400006F
:1001400000000000000000000000000000000000AF
:100150005504000057040000590400005B0400002F
:10016000000000000000000000000000000000008F
:10017000000000000000000000000000000000007F
:10018000000000000000000000000000000000006F
:10019000000000000000000000000000000000005F
:1001A000000000000000000000000000000000004F
:1001B0005D0400005F0400006104000063040000AF
:1001C0006504000067040000690400006B0400007F
:1001D0006D0400006F04000071040000730400004F
:1001E000750400007704000079040000000000009E
:1001F000000000007B0400007D0400007F0400007C
:1002000081040000830400000000000000000000E2
:100210008504000087040000890400008B040000AE
:100220008D0400008F04000091040000930400007E
:100230009504000097040000990400009B0400004E
:100240009D0400009F040000A1040000A30400001E
:10025000A5040000A7040000A9040000AB040000EE
:10026000AD040000AF040000B104000000F002F88B
:1002700000F092F80AA090E8000C82448344AAF1AE
:100280000107DA4501D100F087F8AFF2090EBAE8AC
:100290000F0013F0010F18BFFB1A43F001031847BA
:1002A0002C7000004C700000103A24BF78C878C150
:1002B000FAD8520724BF30C830C144BF04680C606C
:1002C000704700000023002400250026103A28BFB4
:1002D00078C1FBD8520728BF30C148BF0B607047B8
:1002E0006E2900F0E182702900F02584662906F06D
:1002F000EC86652906F0E986672906F0E68661291D
:1003000006F0E58603681B0A28BF41F080016929D1
:1003100000F08E82642900F08B82752900F08882BB
:100320006F2900F0B383782900F0F183E92900F008
:100330004D83E42900F04A83F52900F04783EF2933
:1003400000F0B083F82900F0F0830368DB0928BFD0
:1003500041F08001632901F04B81732901F0508144
:10036000E32901F05B81F32901F0608100207047EF
:100370001FB501F077FA01F0AFF904000020002169
:1003800006F06CFB401C60600020002106F050FB72
:10039000E0601FBD10B510BD01F070F9114603B447
:1003A00002F034FC03BCFFF7E3FF02F06DFC01F048
:1003B0004BFA03B4FFF7EEFF03BC02F029FC000088
:1003C0003F4880473F480047FEE7FEE7FEE7FEE77D
:1003D000FEE7FEE7FEE7FEE7FEE7FEE7FEE7FEE7F5
:1003E000FEE7FEE7FEE7FEE7FEE7FEE7FEE7FEE7E5
:1003F000FEE7FEE7FEE7FEE7FEE7FEE7FEE7FEE7D5
:10040000FEE7FEE7FEE7FEE7FEE7FEE7FEE7FEE7C4
:10041000FEE7FEE7FEE7FEE7FEE7FEE7FEE7FEE7B4
:10042000FEE7FEE7FEE7FEE7FEE7FEE7FEE7FEE7A4
:10043000FEE7FEE7FEE7FEE7FEE7FEE7FEE7FEE794
:10044000FEE7FEE7FEE7FEE7FEE7FEE7FEE7FEE784
:10045000FEE7FEE7FEE7FEE7FEE7FEE7FEE7FEE774
:10046000FEE7FEE7FEE7FEE7FEE7FEE7FEE7FEE764
:10047000FEE7FEE7FEE7FEE7FEE7FEE7FEE7FEE754
:10048000FEE7FEE7FEE7FEE7FEE7FEE7FEE7FEE744
:10049000FEE7FEE7FEE7FEE7FEE7FEE7FEE7FEE734
:1004A000FEE7FEE7FEE7FEE7FEE7FEE7FEE7FEE724
:1004B000FEE7000004480549034A054B7047000069
:1004C0006D2600006D020000582C0020582E0020E0
:1004D000582C002053EA020C00F069802DE9F04B03
:1004E0004FF00006002B1FBFB3FA83F503FA05F4A3
:1004F00024FA05F65E4012BF1643B2FA82F502FAFC
:1005000005F4C5F120051EBF22FA05FC44EA0C04DF
:10051000203556EA044C4FEA144418BF641C4FF0CF
:1005200000084FF00009904271EB030C39D3002909
:1005300019BFB1FA81F701FA07F6B0FA80F700FAAD
:1005400007F6C7F120071EBF20FA07FC46EA0C0693
:100550002037B6FBF4FCA7EB0507103F07F01F0B95
:10056000CBF120062CFA06F60CFA0BFB44BFB3467F
:100570000026202FA4BF5E464FF0000B5BEA060C5E
:1005800008BF4FF0010B19EB0B0948EB0608ABFB5A
:10059000027C06FB02CC0BFB03CCC01B71EB0C01F5
:1005A000C1E70B46024641464846BDE8F08B13B50D
:1005B000084318BF4FF0FF300146AFF30080BDE89D
:1005C0001C4070470FB41CB50C0007AA009007D060
:1005D0004142A14202D32044401E01E04FF0FF30CF
:1005E000074B7B4469460190069800F076F900219C
:1005F000002C01D0009A11701CBC5DF814FB0000A7
:100600001B030000032A40F2308010F0030C00F0BE
:10061000158011F8013BBCF1020F624498BF11F83C
:1006200001CB00F8013B38BF11F8013BA2F10402F5
:1006300098BF00F801CB38BF00F8013B11F003036D
:1006400000F04883083AC0F0088051F8043B083AAB
:1006500051F804CBA0E80810F5E7121D5CBF51F873
:10066000043B40F8043BAFF30080D20724BF11F8ED
:10067000013B11F801CB48BF11F8012B24BF00F852
:10068000013B00F801CB48BF00F8012B704702F096
:10069000FF0343EA032242EA024200F04FBB4FF05D
:1006A00000020429C0F0128010F0030C00F0468311
:1006B000CCF1040CBCF1020F18BF00F8012BA8BF4D
:1006C00020F8022BA1EB0C0100F038BB5FEAC17CE3
:1006D00024BF00F8012B00F8012B48BF00F8012BC4
:1006E000704700000000000030B44FF0013C50F8AB
:1006F000042B51F8043BCCFA52F4D51A20D1FCB9A2
:1007000050F8042B51F8043BCCFA52F4D51A17D107
:10071000B4B950F8042B51F8043BCCFA52F4D51A72
:100720000ED16CB950F8042B51F8043BCCFA52F4BA
:10073000D51A05D1002CDAD030BC4FF0000070473C
:1007400029BAB1FA81F111F01801D1F120008440E9
:10075000F2D1CA40CB4012F0FF0213F0FF0330BCCD
:10076000D01A704770477047704770B50446856966
:100770000068C10601D5302600E02026C00707D05A
:1007800070BDD4E9012130469047206A401C2062A8
:100790006D1EF6D570BD70B5044685690078C0073A
:1007A00007D170BDD4E9012120209047206A401C68
:1007B00020626D1EF6D570BD09684A0501D540B2AC
:1007C0007047C905FCD500B2704709684A0501D5D4
:1007D000C0B27047C905FCD580B2704770B50C46F1
:1007E0000546012A05D02878800600D5EA6900234D
:1007F00002E0012305E05B1C934202D2E05C00288A
:10080000F9D1A869E618C01AA861286A18442862B4
:100810002846FFF7AAFF04E0D5E9012114F8010BEF
:100820009047B442F8D32846FFF7B5FF70BD0000EB
:100830002DE9F0410646002410687529314616A5B9
:1008400010D0FFF7B9FF002802DA404213A507E0F5
:1008500031688A0701D512A502E0490704D511A520
:10086000012401E0FFF7B1FF00210A2206F124076D
:1008700009E0B0FBF2FCB0FBF2F302FB1C003030ED
:1008800078541846491C0028F3D123462A4630469E
:10089000BDE8F04100F0BCBA000000002D000000EF
:1008A0002B0000002000000011680268006A530558
:1008B00001D508700AE0D30501D5088006E01306CB
:1008C00003D5C217C1E9000200E0086001207047AB
:1008D00001694A1C02610878704700B58FB0CDE904
:1008E00001310021059105497944CDE903101146F4
:1008F000684600F02BF90FB000BD0000E5FFFFFFD8
:10090000D1E900239A4202D2531C0B601070704749
:100910002DE9FF5F15468A460446DFF8AC80F844AF
:100920000027D8E900103E46CDE9001010E03AF863
:1009300016106A4602A800F07DFE411C07D02178FF
:10094000890603D5E269391891420DD80744761C0F
:100950002078800602D5E069B84205DDAE42E6DBCC
:100960003AF816000028E2D1A069C01BA061204619
:10097000FFF7FBFED8E90010CDE90010002017E0DA
:100980003AF818106A4602A800F054FEB0F1FF3F92
:1009900081460BD000250DF1080B05E0D4E90121BB
:1009A0001BF8050090476D1C4D45F7D308F1010079
:1009B000B0428046E4DB206A384420622046FFF7DC
:1009C000EAFEBDE8FF9F0000B26700002DE9F0419C
:1009D0008046D21D22F007020025D2E90002F52947
:1009E00015A614D0011E72F1000106DA0023D0EB27
:1009F000030063EB020211A608E0D8F800108B0791
:100A000001D50FA602E0490701D50EA60125114622
:100A1000002408F1240704E000F0B5F930323A551B
:100A2000641C50EA0102F7D12B463246214640466B
:100A3000BDE8F04100F0ECB9000000002D0000001E
:100A40002B0000002000000030B4002100F124043D
:100A500008E002F00705D208303542EA4372DB08AD
:100A60006554491C52EA0305F3D10468002310A21F
:100A7000250708D504F020040C4304D0C4690123E1
:100A80000CA2641EC46130BC00F0C2B910B50446AB
:100A900021461068FFF799FE02462046BDE8104047
:100AA0000023D1E7D21D22F00701D1E90023CBE7D3
:100AB0000000000030000000F0B40D460188090578
:100AC00002D5214C7C4402E01F4C7C440E340021B2
:100AD00000F1240608E002F00F071209E75D42EA80
:100AE00003721B097754491C52EA0307F3D10278B9
:100AF0000023120704D5702D06D009B1022311344A
:100B00002246F0BC00F084B901231034F8E770B538
:100B100004460D4621461068FFF757FE0246294657
:100B20002046BDE870400023C6E7D21D22F007032F
:100B3000D3E90023C0E70368126843F02003036091
:100B40000823C3610023B7E7146600002DE9F05FB6
:100B5000894604464FF0000ADFF874B1FB44C0F840
:100B600020A02046E1688847002874D0252806D0B8
:100B7000D4E901219047206A401C2062F1E7002659
:100B80005F462046E16888472028054607DB312D6F
:100B900005D2781910F8200C08B10643F1E7B00728
:100BA00001D526F00406C4F81CA00027C4F818A03C
:100BB0002A2D09D0284605F033FF38B304EB870807
:100BC000303DC8F8185019E059F8041B204604EBD2
:100BD00087029161E1688847012F054618D1E069D5
:100BE000002820DA26F020061DE0D8F8180000EBD7
:100BF000800005EB40003038C8F818002046E16856
:100C00008847054605F00CFF0028EED1012F0AD0D9
:100C10002E2D08D12046E16888477F1C0546022F0B
:100C200046F02006C4DBA069002803DA404246F003
:100C30000106A061F00701D026F010066C2D0BD044
:100C4000682D09D04C2D39D06A2D35D0742D35D072
:100C50007A2D33D016E038E0E1682F4620468847E9
:100C6000B842054609D16C2F26D04FF48060E16868
:100C7000064320468847054604E06C2F1AD04FF4FF
:100C8000807006430DB3A5F14100192802D8203524
:100C900046F400664A462946204626604E46FFF73F
:100CA0001FFB80B101280BD0F61D26F0070000F1D4
:100CB000080956E74020E4E78020D8E70020D6E77F
:100CC00006F104094DE7284652E7206ABDE8F09F87
:100CD000A465000010B5203AC0F00B80B1E81850B0
:100CE000A0E81850B1E81850A0E81850203ABFF416
:100CF000F5AF5FEA027C24BFB1E81850A0E81850B5
:100D000044BF18C918C0BDE810405FEA827C24BF08
:100D100051F8043B40F8043B08BF7047D20728BF96
:100D200031F8023B48BF11F8012B28BF20F8023BE5
:100D300048BF00F8012B70474FF0000200B5134682
:100D400094469646203922BFA0E80C50A0E80C50EB
:100D5000B1F12001BFF4F7AF090728BFA0E80C509C
:100D600048BF0CC05DF804EB890028BF40F8042B95
:100D700008BF704748BF20F8022B11F0804F18BF02
:100D800000F8012B704730B5B0F10A0271F1000391
:100D90004FEA900E4EEA817EB0EB0E0061EB9101BE
:100DA0004FEA101E4EEA017E10EB0E0041EB1111CE
:100DB0004FEA102E4EEA016E10EB0E0041EB1121AE
:100DC0004FEA104E4EEA014E10EB0E0041EB11417E
:100DD000401841F100014FEAD00040EA41704FEA6B
:100DE000D1014FEA810444EA907410EB800544EB92
:100DF00001046D1944EB0404521BA3414FF000039E
:100E000048BF0A3200D530BD401C41F1000130BD61
:100E10002DE9F0470D4699469246044600F1240814
:100E20000168880604D5E06921F01001216000E026
:100E30000120A84201DD471B00E00027A1697A19C3
:100E400002EB0900081AA0612078C00602D42046EF
:100E5000FFF78BFC002608E0D4E901211AF8060010
:100E60009047206A401C761C20624E45F4DB2078B7
:100E7000C0060AD52046FFF778FC06E0D4E9012138
:100E800030209047206A401C2062381EA7F10107DD
:100E9000F4DC07E0D4E9012118F805009047206A46
:100EA000401C2062281EA5F10105F3DC2046FFF757
:100EB00072FC2078000602D50220BDE8F0870120F0
:100EC000FBE72DE9FF4F0C461E464FF0FF378BB076
:100ED000D2E90001DDF860800A908A46C1F30A5524
:100EE00005B93D46002108464FF00000BAF1000F59
:100EF00000F4400005DA00EB80004FF4400101EA05
:100F000050004FEA9059B9F1010F00DDB9460A9837
:100F100050EA4A000ED044F61050A5F2FF35454382
:100F20002F14B8F1000F1ED07542291E1EDDC9F125
:100F300000021CE0B8F1010F4FF0000001D0302199
:100F400003E0F24305E02154401CB042FBDB304695
:100F50000022002121540B99C1F80880C1E900202A
:100F60000FB0BDE8F08FBD1B6D1CDEE74A4600DA0E
:100F7000694206A800F0F6FB06AB93E8070003AB56
:100F800083E8070050460A9905F06AF98DE80700E2
:100F9000A0F500501F3800900398002D0ADD42F2A2
:100FA0001F014A460844002303A90390684605F040
:100FB000D3FB09E0A0F500504A461F38002303A9DF
:100FC0000390684605F0DDFB8DE807000004000C87
:100FD00003D04FF0FF30410800E01046B8F1000F99
:100FE00003D00022009215461EE0751E05D4FFF7BF
:100FF000CAFE303262556D1EF9D5B3460122084350
:1010000002D000227F1C04E02078302801D1002289
:101010007F1E002A099784D01DE0112D07DAFFF703
:10102000B2FE303262556D1C50EA0102F5D1084320
:1010300002D00098C8B10EE00021681E05E0235CD4
:10104000625C63542254401E491C8142F7DBAB466C
:10105000A81B401E0990002004F80B000B98099A69
:10106000C0F80880C0E9002B7AE711264FF000088D
:1010700057E72DE9F04F88460446D21D22F00701BC
:1010800091B0D1E90001CDE90A0105F0B1FC0246B9
:101090000B98C00F01D02D2007E02068810701D5F3
:1010A0002B2002E0202101EAC000032A099001D090
:1010B000072A05DB03464146204600F013FB0BE1FF
:1010C0002078800601D5E06900E00620B8F1650FC0
:1010D000814606D0B8F1660F18D0B8F1670F70D10D
:1010E00031E00020B9F1110F009001DB112301E084
:1010F00009F101030AAA01A90CA8FFF7E2FEDDE944
:101100000C70002609F10105834647E001204B469B
:1011100000904FF000470AAA01A90CA8FFF7D1FEE2
:10112000DDE90DB00C995D46002610B909F101000A
:101130000D18B9EB050003D4C0F1FF3609F1010524
:10114000A5EB09002BE0B9F1010F01DA4FF001091D
:101150000020B9F1110F0090484601DD112300E095
:1011600003460AAA01A90CA8FFF7ABFEDDE90C7043
:101170004D4600268346207800070AD4AB4500DAA6
:101180005D4601A8012D04DD411911F8011C30292B
:1011900007D04F4502DA17F1040F04DA0120824626
:1011A0000FE06D1EEEE7002F02DCED1B3E4403E076
:1011B000781CA84200DD7D1CB81B00F1010A4FF02D
:1011C00000472078000703D4AA4501DB4FF0FF3A1F
:1011D0000021B7F1004F0DF143088DF8431024D0E2
:1011E00002202B23002F01DA7F422D230A21021E29
:1011F000A0F1010000DC5FB197FBF1FC97FBF1F27D
:1012000001FB1C7C17460CF1300C08F801CDEEE711
:10121000A8F1010003702188090501D5452100E0EE
:101220006521A0F1010800F8011C09980FA9A1EBA4
:101230000807FF1D00B10120411901EBEA70A16907
:101240003844081A401EA0612078C00602D4204607
:10125000FFF78BFA099828B1D4E901219047206A59
:10126000401C20622078C00622D52046FFF77DFA78
:101270001EE0002E04DBB34502DD01A8805D00E026
:101280003020D4E901219047206A401C2062761C5E
:10129000AAF101005FEA000A0AD100F01DFAC06855
:1012A0000168405CD4E901219047206A401C20621B
:1012B000281EA5F10105DCDC07E0D4E9012118F8BE
:1012C000010B9047206A401C2062381EA7F10107DD
:1012D000F3DC2046FFF75FFA032011B041E600007F
:1012E0002DE9F04F04460D46D21D22F0070089B0CB
:1012F000D0E900974846394605F07AFB0246F80FD8
:1013000001D02D2307E02068810701D52B2302E0BF
:10131000202101EAC0038DF820300BB1012000E04C
:101320000020032A824601D0072A04DB29462046F2
:1013300000F0D8F93FE12078800601D40D2500E0C7
:10134000E569C7F30A560D2D49DA00214FEA175B0C
:1013500008464FF00000002F00F4400007DA00EBD1
:1013600080004FF4400100EBD07001EA600081156D
:10137000012901DD4FF0FF3100224FEA850CBCF15D
:10138000180F06D31346ACF118004FF08052C2403C
:1013900003E04FF4801323FA0CF30CF10C0CBCF1B6
:1013A000200F04D3ACF1200C09FA0CF001E007FA8D
:1013B0000CF000294FF0004801DD18B90FE00ED104
:1013C00040450CD319EB02095F4121B9404502D1D8
:1013D0009F4329EA0209BBEB175F00D0761C2088E7
:1013E000000502D57B48784402E07A4878441938F1
:1013F00008AA302302F80A30037C0AF10101002E0A
:101400000AF1020A53546A4602DC4FF0300101E04F
:101410004FF031014FF001088DF8001002D0A6F214
:10142000FF3603E059EA470100D06B4E002D02DC85
:101430002178090704D54FF002082E218DF80110FC
:10144000C44600210BE0C7F303433F01C35C491CC2
:101450006D1E02F80830052908F1010801DA002D97
:10146000F1DC00210CE000EB1973491C1B786D1EA8
:10147000082902F808304FEA091908F1010801DAD1
:10148000002DF0DC21688B0602D516E0A8F10108DA
:10149000E04505DD02EB080313F8013C302BF5D0E5
:1014A000B8F1000F09DD02EB080313F8013C2E2B05
:1014B00003D1090701D4A8F10108002D05DD3E2163
:1014C00002F808106D1E08F10108407C002E02F899
:1014D000080008F1010804DA2D20764202F808001D
:1014E00002E02B2002F808000A214FF47A708642AD
:1014F00008F101080BDB96FBF0F3303302F80830FB
:1015000096FBF0F308F1010800FB136601E0642E7E
:101510000CDB642096FBF0F3303302F8083096FBC6
:10152000F0F308F1010800FB136601E00A2E06DB68
:1015300096FBF1F0303002F8080008F1010896FB44
:10154000F1F001FB1060303002F80800A16908F1E9
:10155000010808EB050202EB0A00081AA0612078D6
:10156000C00602D42046FFF700F9216A08AE01EB5D
:101570000A00206204E0D4E9012116F8010B90472B
:10158000BAF1010AF7D22078C00602D52046FFF74B
:10159000ECF86E4609E016F8010B3E280FD0D4E9AE
:1015A00001219047206A401C2062B8F10108F2D264
:1015B0002046FFF7F0F809B00320BDE8F08F206A5D
:1015C0002844206203E0D4E90121302090476D1EB9
:1015D000EBD3F8E73E5D000002FCFFFF10B5436966
:1015E00013B1AFF3008001E0FFF7F8F8012010BD60
:1015F000127800F124010A7000224A700122EDE7FE
:1016000011684FF0FF32E9E710B5436913B1AFF34A
:10161000008001E0FFF77CF9012010BD128800F185
:10162000240182840022C2840122EDE711684FF078
:10163000FF32E9E72DE9F04116460C46054600F079
:1016400043F8036893F80101012807D0FF2C12D852
:10165000185D80B101202C70BDE8F081D3F807013E
:101660003246214603F20713C7182846BC46BDE898
:10167000F041002360474FF0FF30EDE7754600F082
:10168000EDF8AE4605006946534620F00700854652
:1016900018B020B5FEF70EFFBDE820404FF0000661
:1016A0004FF000074FF000084FF0000BAC46ACE8DD
:1016B000C009ACE8C009ACE8C009ACE8C00921F039
:1016C00007018D467047000010B500F005F8001DB9
:1016D00010BD00BF8953000010B500F0BFF82030E6
:1016E00010BD00002DE9F0411F46044603260168A5
:1016F000072A01F4006004DB08B116A505E016A571
:1017000003E008B115A500E015A521F01000206048
:10171000A069C01EA0610FB1401EA0612046FFF766
:1017200024F84FB1D4E9012138469047206A401C83
:101730002062C01C206206E0206AFAE7D4E9012199
:1017400015F8010B9047761EF8D22046FFF723F8D4
:10175000BDE8F0814E414E006E616E00494E46007C
:10176000696E66002DE9F047814616468AB0354815
:1017700078440DC88DE80D0032487844801C03ACD5
:101780000DC884E80D0041F69B300844372190FBDA
:10179000F1F290FBF1F5A5F1800501FB12041B3C71
:1017A00002D56442012000E00020DFF898A08046C6
:1017B0000027FA44AAF1BE0A0EE0E0070AD032463A
:1017C000684607EB470101230AEB810104F0D9FFCA
:1017D0008DE8070064107F1C002CEED1194F7F4468
:1017E000AE3F19E0E80715D007EB04100DF1180A19
:1017F00090E80E008AE80E00C068F04201D1981906
:1018000008903246012306A903A804F0BAFF03ABEF
:1018100083E807006D10641C002DE3D14FF0010335
:1018200032466946B8F1000F03A802D004F094FFD5
:1018300001E004F0A6FFC9E90001C9F808200AB0D8
:10184000BDE8F087445A000010B50446AFF30080AD
:101850002046BDE81040FEF7ACBD000000487047D0
:101860001800002080B505F01EFCF1EE100A4EF6BF
:101870003C71CEF20001086080BD000080B584B0EC
:10188000029000F0E7F818B9FFE7002003906CE041
:10189000029840F20C01C2F200010968884207D2A6
:1018A000FFE7029840F20C01C2F200010860FFE776
:1018B000029840F23C21C2F200010968884207D92F
:1018C000FFE7029840F23C21C2F200010860FFE706
:1018D00040F23C20C2F20000006840F20C01C2F26B
:1018E0000001096888421ED9FFE7029840F20C0106
:1018F000C2F200010968401A00EE100AB8EE400A70
:101900009FED1C1A20EE010A40F23C20C2F20000BA
:101910000068401A01EE100AB8EE411A80EE010A82
:101920008DED010A02E000200190FFE700F01AFAB5
:1019300001280FD1FFE79DED010AB3EE0E1AB4EEB8
:10194000410AF1EE10FA05DDFFE70020C4F2F010C5
:101950000190FFE700F006FA022803D1FFE700201C
:101960000190FFE701980390FFE79DED030A04B0A3
:1019700080BD00BF0000C84240F22820C2F2000033
:101980000078704740F22920C2F2000000787047CA
:101990004EF20861C4F20F01086840F002000860CE
:1019A000086840F020000860FFE74EF60820C4F207
:1019B0000F00006800F02200222801D0FFE7F4E7C2
:1019C00045F20041C4F20001086820F001000860FF
:1019D00045F21051C4F20001086840F001000860AF
:1019E00045F21C51C4F20001086840F00100086093
:1019F00045F20043C4F20203186820F0100018609A
:101A000045F21052C4F20202106840F0100010605B
:101A100045F21C51C4F20201086840F01000086051
:101A2000186820F008001860106840F00800106086
:101A3000086840F008000860186820F0040018608A
:101A4000106840F004001060086840F0040008606E
:101A50007047000040F20800C2F2000000787047B2
:101A600040F23821C2F200010020087070470000E7
:101A700081B08DF803009DF8030040F22821C2F2E6
:101A80000001087001B0704781B08DF803009DF827
:101A9000030040F22921C2F20001087001B0704732
:101AA00080B58AB045F2FC30C4F20000006800F056
:101AB00001008DF8260045F2FC30C4F202000168F6
:101AC000C1F300118DF825100168C1F3C0018DF834
:101AD00024100068C0F380008DF8230003F038FF65
:101AE00007909DF8230040F20101C2F2000109783D
:101AF00088421ED0FFE7079840F27801C2F2000149
:101B00000968401A40F20001C2F2000109788842D7
:101B10000ED9FFE79DF82300B0FA80F04009FFF7E7
:101B2000A7FF079840F27801C2F200010860FFE7C2
:101B3000FFE79DF8240040F20801C2F20001097895
:101B4000884240D0FFE79DF8240088B9FFE700F005
:101B5000E9FC8DED060A9DED060AB5EE400AF1EEB0
:101B600010FA04DDFFE700208DF82700F5E009E01A
:101B700000F0F8F8022804D0FFE700208DF82400D8
:101B8000FFE7FFE79DF8241040F20800C2F20000D2
:101B900001700078B0B9FFE740F22920C2F20000DE
:101BA000007870B1FFE700200390FFF76DFF039806
:101BB00040F23821C2F20001087001208DF82700A0
:101BC000CBE0FFE7FFE79DF82600A0BBFFE740F270
:101BD0000200C2F20000007801282CD1FFE707982C
:101BE00040F27801C2F200010968401A40F2000197
:101BF000C2F20001097888421CD9FFE740F229208F
:101C0000C2F200000078012813D0FFE70120029003
:101C1000FFF73AFF029840F23821C2F20001087043
:101C2000079940F27802C2F2000211608DF8270095
:101C300093E0FFE7FFE79DF82500002847D1FFE785
:101C400040F20300C2F20000007801283FD1FFE714
:101C5000079840F27801C2F200010968401A40F288
:101C60000001C2F20001097888422FD9FFE740F253
:101C70002920C2F20000007838B3FFE70020FFF708
:101C800003FF00F04FFC8DED050A9DED050AB5EE52
:101C9000400AF1EE10FA07DDFFE740F23821C2F208
:101CA00000010120087006E040F23821C2F2000174
:101CB00000200870FFE7079840F27801C2F20001A7
:101CC000086001208DF8270047E0FFE7FFE740F2BA
:101CD0003820C2F20000007830BBFFE740F2080075
:101CE000C2F200000078F8B1FFE700F01BFC8DEDB8
:101CF000040A9DED040AB3EE041AB4EE410AF1EEB3
:101D000010FA10DDFFE740F22920C2F2000000784F
:101D1000012808D0FFE701200190FFF7B5FE0198E8
:101D20008DF8270019E0FFE79DF8260040F2020138
:101D3000C2F2000108709DF8250040F20301C2F2D2
:101D4000000108709DF8230040F20101C2F2000179
:101D5000087000208DF82700FFE79DF827000AB0E3
:101D600080BD000040F22A20C2F2000000787047D7
:101D70004EF20861C4F20F01086840F020000860CC
:101D8000FFE74EF60820C4F20F0000688006002826
:101D900001D4FFE7F5E745F22051C4F2020144F215
:101DA0004B30C4F64F40086045F22452C4F20202A0
:101DB000106840F0010010600020086045F200410A
:101DC000C4F20201086820F00300086045F21051D7
:101DD000C4F20201086840F00300086045F21C519B
:101DE000C4F20201086840F0030008607047000078
:101DF00080B584B000F096FB8DED010A45F2FC3011
:101E0000C4F20200006800F0030002909DED010A98
:101E1000B1EE041AB4EE410AF1EE10FA4FDCFFE71E
:101E20009DF80800C007C0B1FFE79DF808008007D3
:101E3000002812D4FFE740F22A20C2F20000007806
:101E400050B1FFE740F22A21C2F2000100200870E1
:101E500001208DF80F0036E030E09DF80800800783
:101E6000002817D5FFE79DF80800C00790B9FFE7E5
:101E700040F22A20C2F200000078012809D0FFE7D2
:101E800040F22A21C2F20001012008708DF80F00F3
:101E900019E012E040F22A20C2F200000078022885
:101EA0000AD0FFE740F22A21C2F2000102200870A6
:101EB00001208DF80F0006E0FFE7FFE7FFE70020B5
:101EC0008DF80F00FFE79DF80F0004B080BD000003
:101ED0004EF20861C4F20F01086840F0010008608A
:101EE0004EF22061C4F20F01086840F00200086061
:101EF000FFE74EF60820C4F20F000068C00708B9DB
:101F0000FFE7F6E744F22041C4F20001086840F020
:101F1000C000086044F20C51C4F20001086840F0AF
:101F20008000086044F21C51C4F20001086840F0CF
:101F3000C000086044F22C51C4F20001086820F08F
:101F40007F400860086840F04C50086041F2200172
:101F5000C4F202011020086041F20C01C4F2020137
:101F6000072008607047000080B586B004908DF8A7
:101F70000F10029201930298002804DCFFE7FF2073
:101F80008DF817005BE00498400041F20001C4F2B4
:101F9000020108609DF80F0041F20801C4F202013D
:101FA000086041F20401C4F202010320086000F05D
:101FB0004BF820B1FFE7FF208DF817003FE000202D
:101FC0000090FFE700980299013988421BDAFFE789
:101FD00001980099405C41F20801C4F202010860D6
:101FE00041F20401C4F202010120086000F02CF863
:101FF00020B1FFE7FE208DF8170020E0FFE70098F2
:1020000001300090DEE701990298084410F8010CB5
:1020100041F20801C4F20201086041F20401C4F275
:1020200002010520086000F00FF820B1FFE7FD2055
:102030008DF8170003E000208DF81700FFE79DF8EA
:10204000170006B080BD0000FFE741F20400C4F2B3
:1020500002000068C00708B1FFE7F6E741F204009C
:10206000C4F20200006800F00E00704780B5012045
:1020700000F082F8022000F0D1FD80BD80B58CB068
:10208000FFF726FF40F23420C2F20000006848B992
:10209000FFE7012003F046F840F23421C2F20001CC
:1020A0000860FFE7322000F0B9FD00200B90FFE749
:1020B0000B98022829DCFFE738208DF82B009DF8CB
:1020C0002B0040F004008DF82A0027200690002104
:1020D0000791012208920DF12A03FFF745FF0898A6
:1020E00000F09CFD06980799089A9DF82B308DF812
:1020F00029300DF12903FFF737FF052000F08EFD91
:10210000FFE70B9801300B90D2E7282003908DF861
:1021100028009DF8280040F004008DF827002720B3
:10212000019000210291012204920DF12703FFF793
:102130001BFF049800F072FD01980299049A9DF823
:1021400028308DF826300DF12603FFF70DFF05200E
:10215000059000F063FD039800F00EF80C2000F0ED
:102160000BF8049800F008F8062000F005F8059830
:1021700000F054FD0CB080BD80B582B08DF8070032
:102180009DF8070000F0F0008DF802009DF80700B0
:1021900000018DF801009DF8020040F00C008DF860
:1021A00003009DF8020040F008008DF804009DF83F
:1021B000010040F00C008DF805009DF8010040F092
:1021C00008008DF8060040F23420C2F200000068DA
:1021D00050B1FFE740F23420C2F2000000684FF037
:1021E000FF3103F00FFAFFE72720002104220DF151
:1021F0000303FFF7B9FE40F23420C2F2000000688A
:1022000058B1FFE740F23420C2F20000006800231A
:1022100019461A4603F096F8FFE7022000F0FEFC8C
:1022200002B080BD80B582B08DF807009DF8070030
:1022300000F0F0008DF802009DF8070000018DF815
:1022400001009DF8020040F00D008DF803009DF89C
:10225000020040F009008DF804009DF8010040F0F4
:102260000D008DF805009DF8010040F009008DF883
:10227000060040F23420C2F20000006850B1FFE7CF
:1022800040F23420C2F2000000684FF0FF3103F04A
:10229000B9F9FFE72720002104220DF10303FFF71E
:1022A00063FE40F23420C2F20000006858B1FFE73C
:1022B00040F23420C2F200000068002319461A469A
:1022C00003F040F8FFE7012000F0A8FC02B080BD59
:1022D00080B584B0039002914FF48040ADF80600C1
:1022E0000398022803DBFFE701200390FFE7029831
:1022F000039A0DF10601895C084440F08000C0B2E9
:10230000FFF73AFF04B080BD80B582B00190FFE7CF
:102310000198007838B1FFE70198411C01910078DD
:10232000FFF780FFF4E702B080BD0000000000006E
:1023300080B586B0002004900390029046F2FC32F3
:10234000C4F20002116821F0200111600190FFE742
:102350000198632805DCFFE7FFE701980130019051
:10236000F6E746F2FC31C4F20001086840F02000B4
:10237000086000200090FFE70098632805DCFFE775
:10238000FFE7009801300090F6E746F2FC31C4F216
:102390000001086820F02000086000200290FFE79C
:1023A00046F2FC30C4F200000068400600280FD45A
:1023B000FFE7029801300290029848F2A161C0F252
:1023C0000101884203D3FFE7002005904FE0E7E7D3
:1023D000002004900290FFE746F2FC30C4F20000B7
:1023E00000684006002812D5FFE7049801300490E9
:1023F000029801300290029848F2A161C0F20101F6
:10240000884203D3FFE70020059030E0E4E704981A
:1024100004F0C6FC41EC100B9FED171B53EC112B85
:1024200051EC100B04F0D0FC41EC100B51EC100BF4
:102430009FED130B53EC102B04F058FB41EC100BE9
:1024400051EC100B04F020FB03909DED030A9FED6F
:102450000E1AB4EE410AF1EE10FA05DDFFE7002096
:10246000C4F216300390FFE703980590FFE79DED57
:10247000050A06B080BD00BF9CC420B07268A13FB1
:1024800000000000000000400000164300000000B3
:10249000EFF30980BFF36F8F154B1A681EF0100F12
:1024A00008BF20ED108A20E9F04F10602DE90900E7
:1024B0004FF0800080F31188BFF34F8FBFF36F8F11
:1024C00002F08AFC4FF0000080F31188BDE809009B
:1024D00019680868B0E8F04F1EF0100F08BFB0ECA4
:1024E000108A80F30988BFF36F8F704700BF00BF69
:1024F000E4020020000000000000000000000000D6
:10250000074B19680868B0E8F04F80F30988BFF3FB
:102510006F8F4FF0000080F31188704700BF00BF3D
:10252000E402002040F22C20C2F2000090ED000AEC
:10253000704700004EF23861C4F20F01086840F0A5
:10254000010008604EF20861C4F20F01086840F013
:1025500010000860FFE74EF60820C4F20F00006884
:10256000C006002801D4FFE7F5E744F22041C4F299
:102570000201086840F00800086044F21C51C4F2EF
:102580000201086820F00800086044F22851C4F2F3
:102590000201086840F00800086048F20001C4F237
:1025A0000301086820F00100086048F21402C4F238
:1025B0000302106820F00F00106048F24002C4F2DD
:1025C00003020020106048F24402C4F20302062015
:1025D0001060086840F001000860704780B582B064
:1025E000FFF738FA38B9FFE740F22C21C2F20001B8
:1025F0000020086027E048F22801C4F203010868BF
:1026000040F001000860FFE748F20400C4F2030054
:102610000068C00708B9FFE7F6E748F24800C4F2CF
:1026200003000068019048F20C01C4F2030101208C
:1026300008600198FFF722F940F22C20C2F2000056
:1026400080ED000AFFE702B080BD000080B54EF2C9
:102650001000CEF20000006803F05EF9012803D0FC
:10266000FFE702F03FFDFFE780BD000081B04EF6BE
:102670008851CEF20001086840F4700008604EF204
:102680007001C4F20F0142F61000C0F280700860C1
:102690004EF26002C4F20F0243F6D120C0F28E70F7
:1026A000106042F64250C0F29E10106042F60000E8
:1026B000C0F28010086000200090FFE70098C0087A
:1026C0007C2805D8FFE7FFE7009801300090F5E788
:1026D0004EF26001C4F20F0140F64250C0F29E106B
:1026E00008604EF27001C4F20F0140F60000C0F223
:1026F0008010086000200090FFE70098C0087C2848
:1027000005D8FFE7FFE7009801300090F5E74EF2AB
:102710006001C4F20F0140F64250C0F2DE100860C2
:10272000FFE74EF25000C4F20F00006800F04000D6
:10273000402801D0FFE7F4E74EF26001C4F20F0138
:1027400040F24250C0F2DE1008604EF27001C4F256
:102750000F014FF0C070086000200090FFE7009864
:1027600042F20F71884205D8FFE7FFE70098013079
:102770000090F4E701B0704740F22420C2F200005C
:1027800090ED000A7047000080B581B04EF20861FC
:10279000C4F20F01086840F01C000860FFE74EF625
:1027A0000820C4F20F00006810F01C0F01D1FFE7F1
:1027B000F5E746F20043C4F20003186840F0200039
:1027C000186046F21C52C4F20002106840F020006B
:1027D000106046F2FC31C4F20001086820F02000CD
:1027E0000860186820F040001860106840F0400051
:1027F000106046F21452C4F20002106840F040002B
:10280000106044F20043C4F20203186840F0010073
:10281000186044F21C52C4F20202106840F0010039
:10282000106047F2004EC4F2000EDEF8000040F0E7
:102830004000CEF8000047F21C5CC4F2000CDCF84B
:10284000000040F04000CCF80000DEF8000040F04E
:102850000100CEF80000DCF8000040F00100CCF8E8
:102860000000186840F002001860106840F0020094
:10287000106044F2FC32C4F20202106820F0020040
:102880001060106820F00100106047F2FC32C4F2C2
:102890000002106820F040001060106820F0010075
:1028A0001060086840F02000086000200090FFE7FA
:1028B0000098B0F57A7F05DAFFE7FFE7009801306E
:1028C0000090F5E746F2FC31C4F20001086820F000
:1028D0002000086001B080BD44F2FC31C4F2020166
:1028E000086820F0020008607047000044F2FC31E4
:1028F000C4F20201086820F00100086047F2FC31D0
:10290000C4F20001086820F040000860086820F068
:10291000010008607047000080B5FFF723FA012826
:1029200010D1FFE7FFF704FD40F22420C2F20000BF
:1029300080ED000A03F00CF840F23021C2F20001F1
:10294000086006E040F22421C2F200010020086085
:10295000FFE780BD80B584B08DED030A02F0F8FF7B
:1029600002909DED030AB5EE400AF1EE10FA09DC83
:10297000FFE744F2FC31C4F20201086820F00200D3
:10298000086043E09DED030A9FED211AB4EE410A71
:10299000F1EE10FA04DDFFE74FF47A70019011E0D8
:1029A0009DED030AB3EE0E1AB4EE410AF1EE10FAF1
:1029B00004DDFFE74FF4FA70019002E0C8200190B7
:1029C000FFE7FFE7029840F27C01C2F200010968CC
:1029D000401A009001984FF47A72A0FB0201002384
:1029E000FDF778FD0146009888420FD3FFE744F2D7
:1029F000FC31C4F20201086880F00200086002980D
:102A000040F27C01C2F200010860FFE704B080BD23
:102A10000000C84281B08DED000A44F2FC31C4F2DE
:102A20000201086820F00100086047F2FC31C4F29E
:102A30000001086820F040000860086820F00100EC
:102A400008609DED000A9FED1C1AB4EE410AF1EEFC
:102A500010FA09DDFFE744F2FC31C4F20201086814
:102A600040F00100086025E09DED000AB3EE0E1A6B
:102A7000B4EE410AF1EE10FA09DDFFE747F2FC314E
:102A8000C4F20001086840F04000086011E09DEDCC
:102A9000000AB5EE400AF1EE10FA09DDFFE747F251
:102AA000FC31C4F20001086840F001000860FFE753
:102AB000FFE7FFE701B070470000C84280B582B071
:102AC000019000F071F958B1FFE700F0CDF838B18E
:102AD000FFE7019800684FF0FF3102F093FDFFE738
:102AE00002B080BD80B582B001900198006801F00D
:102AF00099FF00200090FFE7009804281AD8FFE70C
:102B000001980068009A40F21021C2F2000151F8C9
:102B10002210884209D1FFE7009A40F21021C2F248
:102B20000001002041F8220004E0FFE70098013096
:102B30000090E1E702B080BD80B584B001900199BA
:102B4000002008600090FFE70098042828D8FFE7DD
:102B5000009940F21020C2F2000050F82100D0B9D4
:102B6000FFE7009800EB800140F28000C2F2000015
:102B700000EB0111012002F0E9FA0146009A40F24F
:102B80001020C2F2000040F82210009950F82100F5
:102B90000199086004E0FFE7009801300090D3E756
:102BA0000198006850B9FFE700F0FEF830B1FFE788
:102BB000012002F0B7FA01990860FFE700200390B6
:102BC000039880F311880198006818B9FFE7002086
:102BD000029002E001200290FFE7029804B080BD5D
:102BE00080B582B0019000F0DFF860B1FFE700F03F
:102BF0003BF840B1FFE701980068002319461A46E8
:102C000002F0A0FBFFE702B080BD000070470000AB
:102C100081B00090002001B07047000080B582B004
:102C2000019002F079FE01280BD0FFE701984FF4E4
:102C30007A7280FB02010023FDF74CFC01F068FF73
:102C400010E000200090FFE7009801994FF47A62AD
:102C50005143884205DAFFE7FFE700980130009012
:102C6000F2E7FFE702B080BD82B0EFF3058001908C
:102C7000019818B1FFE70120009002E000200090C9
:102C8000FFE7009802B0704780B586B0002003903F
:102C90000590FFF7EBFCFFF7F1F9FEF779FEFFF780
:102CA00049FCFFF765F8FFF76FFD012002F03AFAE3
:102CB000039B42F6E431C2F20001086069464B60B2
:102CC00003200490086044F27520C0F2000047F22F
:102CD000EF11C0F200018022029202F0C5FD029ABB
:102CE000039B049869464B60086044F2A530C0F22B
:102CF000000047F2E111C0F2000102F0B5FD029AB6
:102D0000039B049869464B60086044F6AD20C0F20E
:102D1000000047F2DB11C0F2000102F0A5FD029AAB
:102D2000039B049869464B60086044F24D60C0F212
:102D3000000047F2F811C0F2000102F095FD029A7E
:102D4000039B69464B600220086044F28100C0F298
:102D5000000047F20C21C0F2000102F085FD029A4A
:102D6000039B049869464B60086044F6F560C0F226
:102D7000000047F2D011C0F2000102F075FD029A86
:102D8000039B049869464B60086044F2FD60C0F202
:102D9000000047F2FD11C0F2000102F065FD01F0F4
:102DA000D9FFFFE7FEE7000080B582B002F0B4FD76
:102DB000022803D1FFE70120019002E000200190EA
:102DC000FFE7019802B080BD80B588B007900691FA
:102DD00042F64840C2F200000068049040F2EC2045
:102DE000C2F200000068039040F2F420C2F200003A
:102DF0000068029040F2E420C2F200000268002164
:102E000082F85A100068043001F0E4F808B9FFE7CE
:102E100000E0FFE70798013028BBFFE7069810B3F2
:102E2000FFE7FFE742F62041C2F200014868019047
:102E3000019A40F2E420C2F2000003689A60019A0D
:102E400092680368DA6002680432019B9B685A60EA
:102E500002680432019B9A60006841610868013091
:102E60000860FFE735E00498079908440590059845
:102E700040F2E421C2F20001096848600598049913
:102E800088420AD2FFE7029840F2E421C2F2000130
:102E90000968043101F0FCFC1AE0039840F2E421D7
:102EA000C2F200010968043101F0F2FC059842F613
:102EB000EC31C2F200010968884207D2FFE70598A9
:102EC00042F6EC31C2F20001086000E0FFE7FFE7E4
:102ED000FFE708B080BD000080B582B0019001F02E
:102EE00017FD42F25C71C2F200010868013008600F
:102EF00040F2E420C2F20000006898B9FFE70198B0
:102F000040F2E421C2F20001086042F25C70C2F2B9
:102F100000000068012803D1FFE700F0E5FB00E0B6
:102F2000FFE71CE042F61440C2F200000068A0B9BE
:102F3000FFE740F2E420C2F200000068C06A019995
:102F4000C96A884207D8FFE7019840F2E421C2F23B
:102F50000001086000E0FFE700E0FFE7FFE742F262
:102F60006870C2F2000001680131016000680199D7
:102F70004864FFE7FFE70198C06A42F26C71C2F251
:102F800000010968884208D9FFE70198C06A42F247
:102F90006C71C2F200010860FFE7FFE7FFE70198EC
:102FA000C06A00EB800040F2FC21C2F2000101EB9C
:102FB0008000406800900098019A906000988068B6
:102FC000019AD06001980430009A9268506001988C
:102FD0000430009A9060019AD06A00EB800001EB07
:102FE000800050610198C06A00EB800251F8220015
:102FF000013041F82200FFE7FFE701F0A1FC42F6B3
:103000001440C2F200000068D8B1FFE7FFE740F2C9
:10301000E420C2F200000068C06A0199C96A8842CF
:103020000CD2FFE74EF60451CEF200014FF0805073
:103030000860BFF34F8FBFF36F8F00E0FFE7FFE73C
:1030400000E0FFE702B080BD80B584B001F060FC15
:1030500042F64C40C2F20000006878BBFFE742F63F
:103060008C30C2F20000029001F0F2FB42F6A03078
:10307000C2F20000039001F0EBFB0299039840F2CA
:10308000E822C2F20002116040F2F821C2F200010F
:10309000086069460020086040F24022C2F2000247
:1030A00040F29023C2F200030520102102F0ACF898
:1030B00042F64C41C2F20001086000E0FFE701F077
:1030C0003FFC04B080BD000080B582B0FFE742F253
:1030D0006070C2F20000006808B3FFE701F018FC5E
:1030E00042F63440C2F20000C068C0680190019806
:1030F000043000F06FFF42F25C71C2F20001086818
:103100000138086042F26071C2F2000108680138BB
:10311000086001F015FC019800F074F9D7E702B0DF
:1031200080BD000080B582B0019000910198006CD4
:10313000B8B1FFE70199C8680A6C1044C8600198EB
:103140008168C068884204D3FFE701990868C860B5
:1031500000E0FFE70098019AD168126CFDF752FA7F
:10316000FFE702B080BD000080B586B005900491F5
:103170000392002002900598806B01900598006CE6
:1031800078B9FFE70598006848B9FFE705988068B7
:1031900002F018FD029005990020886000E0FFE72A
:1031A00041E00398B8B9FFE7059A04995068126C9A
:1031B000FDF728FA059948680A6C1044486005999B
:1031C00048688968884204D3FFE705990868486021
:1031D00000E0FFE726E0059A0499D068126CFDF73D
:1031E00011FA0599C8680A6C801AC86005980168C8
:1031F000C068884206D2FFE7059988680A6C801A81
:10320000C86000E0FFE70398022809D1FFE70198B2
:1032100020B1FFE701980138019000E0FFE700E0EE
:10322000FFE7FFE7FFE701980130059988630298FF
:1032300006B080BD80B590B001200F9000200990AD
:103240000890FFE708980F2813DCFFE7089A47F279
:10325000BB20C0F20000815C0AA881540899405C40
:1032600008B9FFE705E0FFE7FFE70898013008909D
:10327000E8E700200E90FFE70E9800283BDCFFE710
:1032800043F25550C0F200000990002004900790CE
:10329000069007A806A905AA00F0C0FE049B09989D
:1032A000059ADDF818C0DDF81CE06946C1F808E0B1
:1032B000C1F804C00B600AA902F000FB01460E9A97
:1032C00042F6E030C2F2000040F822100E9950F8A9
:1032D000210018B1FFE701200F9002E000200F90BD
:1032E000FFE70F9808B9FFE705E0FFE7FFE70E9853
:1032F00001300E90C0E70F9810B080BD70B58AB055
:10330000DDF844C0DDF840C0DDF83CC0DDF838C071
:103310000990089107920693109828B3FFE70F9839
:1033200010B3FFE71098059005985C21FDF7B7F9F9
:103330000F98059908630599022081F859000998AA
:103340000899079A069BDDF838C0119C059DEE464A
:103350000026CEF80C60CEF80850CEF80440CEF827
:1033600000C000F04DF902E000200590FFE705984D
:103370000AB070BD70B58AB0DDF83CC0DDF838C069
:1033800009900891079206930798800000F004FDC9
:1033900004900498A0B1FFE75C2000F0FDFC0590CC
:1033A000059840B1FFE705985C21FDF778F904988E
:1033B0000599086303E0049801F0D6FAFFE702E0FC
:1033C00000200590FFE70598C0B1FFE705980026AB
:1033D00080F8596009980899079A069BDDF838C06B
:1033E0000F9C059DEE46CEF80C60CEF80850CEF846
:1033F0000440CEF800C000F003F9FFE705980AB0DA
:1034000070BD000080B582B00190019890F859001D
:1034100040B9FFE70198006B01F0A6FA019801F0AE
:10342000A3FA0BE0019890F85900012804D1FFE7B6
:10343000019801F099FA00E0FFE7FFE702B080BDD4
:1034400082B001900198406A38B1FFE70198006BA3
:103450000068C0F13800009002E000200090FFE713
:10346000009802B07047000082B0019040F2E8205E
:10347000C2F2000000680068B0FA80F040090199CB
:1034800008600198006848B9FFE740F2E820C2F2FE
:1034900000000068C0680068009002E00020009012
:1034A000FFE7009802B0704784B04FF400500090DE
:1034B00040F25C70C2F2000002909DF808004007E4
:1034C00088B1FFE7029807300290029820F00700C9
:1034D0000290029A40F25C71C2F200010098891ACF
:1034E00008440090FFE7029942F61840C2F200003B
:1034F0000160002141600298009A104401900198F7
:1035000008380190019820F007000190019A40F2DC
:10351000F020C2F20000026002685160026811608F
:10352000029903910199039A891A516000680399DD
:1035300008600398406842F6E831C2F20001086072
:103540000398406842F6DC31C2F20001086004B022
:103550007047000080B582B00190FFE7FFF7B4FD2F
:1035600040F2FC20C2F20000006802280CD3FFE702
:103570004EF60451CEF200014FF080500860BFF3C8
:103580004F8FBFF36F8F00E0FFE7E7E780B582B0B2
:103590000190019868B1FFE70198002383600198CA
:1035A00003600198C360019819461A4601F0CAFEEB
:1035B00000E0FFE702B080BD80B584B0DDF818C040
:1035C0000390029101928DF80330029818B9FFE739
:1035D0000698006003E0019806990860FFE70398E9
:1035E0000699C8630298069908640698012101F0BB
:1035F00041FE9DF80300069981F84C0004B080BD9F
:1036000080B586B0DDF82CC0DDF828C0DDF824C018
:10361000DDF820C005900491039202930A98006B94
:1036200003998900A522FDF732F80A98006B0399E7
:1036300000EB810004380190019820F00700019010
:103640000498F8B1FFE700200090FFE700980F28EA
:1036500013D8FFE70498009A805C0A99114481F816
:10366000340004980099405C08B9FFE705E0FFE7E3
:10367000FFE7009801300090E8E70A99002081F800
:10368000430000E0FFE70898382803D3FFE737201E
:10369000089000E0FFE708980A99C86208980A991C
:1036A000C8640A98043001F0EBF80A98183001F069
:1036B000E7F80A9800610898C0F138000A99886113
:1036C0000A98406201980599029A00F053FC0A9901
:1036D0000860099820B1FFE70A980999086000E09E
:1036E000FFE706B080BD000080B584B000200390E5
:1036F000FFE70398372810D8FFE7039800EB800115
:1037000040F2FC20C2F2000000EB810001F0A0F8C2
:10371000FFE7039801300390EBE742F6B430C2F2C2
:103720000000019001F094F842F6C830C2F20000A7
:10373000029001F08DF842F60040C2F2000001F064
:1037400087F842F63440C2F2000001F081F842F6F8
:103750002040C2F2000001F07BF80199029840F28B
:10376000EC22C2F20002116040F2F421C2F2000128
:10377000086004B080BD000083B0029042F618409B
:10378000C2F200000190FFE70198006802998842A8
:1037900005D2FFE7FFE7019800680190F4E7019880
:1037A00042F61841C2F20001884201D0FFE7FFE76C
:1037B000019800900098019949680844029988424C
:1037C00009D1FFE7029842680199486810444860AF
:1037D0000198029000E0FFE702980090009802999B
:1037E0004968084401990968884220D1FFE7019897
:1037F000006840F2F021C2F20001096888420DD051
:10380000FFE70198006842680299486810444860E0
:103810000198006800680299086007E040F2F02013
:10382000C2F20000006802990860FFE704E0019816
:10383000006802990860FFE701980299884204D065
:10384000FFE702980199086000E0FFE703B07047C6
:1038500080B586B0059004910392029300200190F8
:103860000498059948600598006104980399884276
:1038700016D8FFE703980299401A0599896988428A
:1038800003D3FFE70120019009E040F2F820C2F2E3
:10389000000000680599043100F0FAFFFFE717E027
:1038A00003980299884208D2FFE704980299884257
:1038B00003D3FFE70120019009E040F2E820C2F2C3
:1038C000000000680599043100F0E2FFFFE7FFE720
:1038D000019806B080BD000080B582B0019001F073
:1038E00017F80198806B18B9FFE70120009002E0FB
:1038F00000200090FFE701F023F8009802B080BD9F
:1039000080B582B0019001F003F80198806B0199B5
:10391000C96B884203D1FFE70120009002E000203C
:103920000090FFE701F00CF8009802B080BD0000A5
:1039300008480068006880F308884FF0000080F3B2
:10394000148862B661B6BFF34F8FBFF36F8F00DF8D
:1039500000BF000008ED00E080B584B00390029144
:1039600040F2E820C2F200000068C068C068019020
:103970000198043000F02EFB019890F828004007D1
:10398000002806D5FFE701980399029A00F004F990
:1039900007E0019991F8280000F0FE0081F8280066
:1039A000FFE70198016A884704B080BD80B58AB0FE
:1039B00000200990089007900690FFE742F64C40DF
:1039C000C2F20000006806A9002201F071FD002883
:1039D00000F09180FFE70698B0F1FF3F09DCFFE7B8
:1039E00006A80430029002990A68486889689047DE
:1039F00000E0FFE70698002800F17C80FFE70898C8
:103A000005900598406928B1FFE70598043000F05B
:103A1000E1FA00E0FFE704A800F0F6F8039006984A
:103A2000013801460191082862D80199DFE801F0C8
:103A30000505323A4C0505323A00059991F82800FF
:103A400040F0010081F828000598079B816919441E
:103A5000039AFFF7FDFED8B1FFE7059890F828001C
:103A60004007002808D5FFE70598079982691144A7
:103A7000039A00F091F807E0059991F8280000F00A
:103A8000FE0081F82800FFE70598016A884700E0FA
:103A9000FFE72EE0059991F8280000F0FE0081F87C
:103AA000280026E0059991F8280040F0010081F8EF
:103AB00028000798059988610598039B8169194436
:103AC0001A46FFF7C5FE14E0059890F82800800715
:103AD000002804D4FFE7059800F046FF07E00599A9
:103AE00091F8280000F0FE0081F82800FFE700E0D0
:103AF000FFE7FFE762E70AB080BD000080B584B051
:103B00000390029101F060F9684600F07DF80190A1
:103B10000098D8BBFFE7029860B9FFE703980199C6
:103B2000884207D8FFE702F03FFA03980199FFF7B0
:103B300013FF2AE0029858B1FFE740F2F820C2F2E2
:103B4000000000680068B0FA80F040090290FFE7CA
:103B500042F64C40C2F2000000680399019A891AAB
:103B6000029A00F071FF02F01FFA60B9FFE74EF60B
:103B70000451CEF200014FF080500860BFF34F8F28
:103B8000BFF36F8F00E0FFE7FFE702E002F00CFAFF
:103B9000FFE704B080BD000080B584B003900291BF
:103BA0000192FFE70398029B81691944019AFFF78C
:103BB0004FFE48B1FFE703988169029808440290DC
:103BC0000398016A8847EDE704B080BD40F2EC201D
:103BD000C2F200000068006840B9FFE742F6EC312D
:103BE000C2F200014FF0FF3008600CE040F2EC2020
:103BF000C2F200000068C068006842F6EC31C2F210
:103C000000010860FFE7704780B582B0019001F0C5
:103C10009FFE0090009840F2E021C2F20001096886
:103C2000884206D2FFE700F011F8019901200860F0
:103C300003E0019900200860FFE7009840F2E021CE
:103C4000C2F200010860009802B080BD80B582B069
:103C5000FFE740F2E820C2F200000068006870B19F
:103C6000FFE740F2E820C2F200000068C068006888
:103C7000019001984FF0FF31FFF76EFEE9E740F247
:103C8000E822C2F200021068009040F2F821C2F26D
:103C90000001086810600098086002B080BD000054
:103CA00082B0002000904FF0800080F31188BFF3B5
:103CB0006F8FBFF34F8F0190FFE7009808B9FFE7C0
:103CC000FBE702B07047000080B584B00390FFE7C7
:103CD00001A8FFF7C9FB029002980199FFF70EFFB8
:103CE000FFF764FEF4E7000080B582B0019000F0B9
:103CF0000FFE019890F845008DF80300FFE79DF94D
:103D00000300012816DBFFE70198406A58B1FFE77E
:103D10000198243002F07EF818B1FFE700F030FF80
:103D200000E0FFE700E005E09DF8030001388DF8B2
:103D30000300E4E70199FF2081F8450000F000FE50
:103D400000F0E6FD019890F844008DF80200FFE7CE
:103D50009DF90200012816DBFFE70198006980B198
:103D6000FFE70198103002F055F818B1FFE700F0B6
:103D700007FF00E0FFE79DF8020001388DF8020020
:103D800000E000E0E4E70199FF2081F8440000F042
:103D9000D7FD02B080BD000080B588B0079000203C
:103DA0000390079840B3FFE7079810F1090F1FD859
:103DB000FFE70798083007909DF81C004007A8B15E
:103DC000FFE7079800F00700C0F10800029007988D
:103DD0000299C943884205D8FFE702990798084429
:103DE000079002E000200790FFE700E0FFE702E015
:103DF00000200790FFE700E0FFE700F0E5FF40F25A
:103E0000F020C2F20000006818B9FFE7FFF74CFB92
:103E100000E0FFE79DF81F000006002800F19180F8
:103E2000FFE70798002800F08A80FFE7079842F62E
:103E3000DC31C2F200010968884200F28080FFE7AD
:103E400042F61840C2F20000059000680690FFE7B5
:103E500006984168079A00209142019007D2FFE737
:103E600006980068002818BF01200190FFE701981C
:103E7000C00730B1FFE706980590069800680690E5
:103E8000E6E7069840F2F021C2F200010968884294
:103E900053D0FFE705980068083003900698006843
:103EA00005990860069840680799401A112815D3AB
:103EB000FFE7069807990844049006984068079918
:103EC000401A049948600798069948600598006868
:103ED0000499086004980599086000E0FFE70698D7
:103EE000426842F6DC30C2F200000168891A0160C3
:103EF000006842F6E831C2F20001096888420BD23C
:103F0000FFE742F6DC30C2F20000006842F6E8311A
:103F1000C2F20001086000E0FFE70699486840F03F
:103F20000040486006990020086042F6F431C2F271
:103F3000000108680130086000E0FFE700E0FFE7EB
:103F400000E0FFE702F030F8039808B080BD000001
:103F500081B040F2E420C2F20000006800900098B6
:103F600028B1FFE70099086D01300865FFE7009868
:103F700001B0704783B0029001910092029804381A
:103F8000029002994FF08070086002980438029005
:103F9000019820F00100029908600298043802900C
:103FA000029943F6A140C0F200000860029814385C
:103FB00002900098029908600298043802900299D1
:103FC0006FF002000860029820380290029803B057
:103FD0007047000082B0019001980069009001983C
:103FE00041688068886001994868896848600098DD
:103FF00040680199884205D1FFE7019880680099DF
:10400000486000E0FFE70199002008610099086816
:10401000013808600098006802B0704783B00290D1
:1040200001910092029942F67010C2F200000860FD
:10403000019942F27070C2F200000860009980207D
:10404000086003B07047000083B0029001910092B5
:10405000029942F60C30C2F200000860019942F663
:10406000CC10C2F20000086000995020086003B034
:104070007047000082B00190009102B070470000CC
:1040800080B598B0179042F6E430C2F200000068A4
:104090004FF0FF3101F0B6FAFDF7E8FF00210A9179
:1040A0000846FEF715F9FDF76DFC014647F2A12021
:1040B000C0F2000047F22923C0F20003002908BF24
:1040C000034647F2B222C0F200020EA80990102166
:1040D000FCF778FA0998FEF717F90A980F21FEF70E
:1040E000F7F8FDF73FFE01460B9170B1FFE70B9823
:1040F000012810D0FFE70B98022812D1FFE747F202
:104100009720C0F200000D9011E047F29520C0F218
:1041100000000D900BE047F29920C0F200000D90D6
:1041200005E047F2AA20C0F200000D90FFE70D9ACB
:104130000EA808901021FCF745FA0898FEF7E4F85D
:1041400001200021FEF7C4F8FDF70CFE01281BD169
:10415000FFE70EA810300690FEF70EFB10EE100AD7
:1041600002F030FF0246069807920A46079942EC91
:10417000101B694681ED000B47F26222C0F200027B
:104180001121FCF71FFA1AE00EA810300490FEF778
:10419000C9F910EE100A02F015FF024604980592C4
:1041A0000A46059942EC101B694681ED000B47F267
:1041B0005022C0F200021121FCF704FAFFE70EA81A
:1041C0001030FEF7A1F842F6E430C2F200000068B9
:1041D000002319461A4601F0B5F8FFE742F6E4302D
:1041E000C2F2000000684FF0FF3101F00BFA00202E
:1041F0000F21FEF76DF8FDF7B5FD0146039170B193
:10420000FFE70398012810D0FFE70398022812D196
:10421000FFE747F29720C0F200000C9011E047F250
:104220009520C0F200000C900BE047F29920C0F2FC
:1042300000000C9005E047F2AA20C0F200000C90AC
:10424000FFE70C9A0EA802901021FCF7BBF9029828
:10425000FEF75AF842F6E430C2F20000006800238C
:1042600019461A4601F06EF84FF47A7000F050FCCF
:10427000B4E7000080B58CB00B9000208DF80700EB
:10428000FFE7FDF70DFC002800F08780FFE701F055
:104290005FFB0090FDF776FB8DF8070042F6E430F7
:1042A000C2F2000000684FF0FF3101F0ABF90021CD
:1042B0000846FEF70DF89DF8070042F66831C2F295
:1042C00000010978884224D0FFE79DF80700012803
:1042D00009D1FFE747F22322C0F2000202A8102111
:1042E000FCF770F908E047F29B22C0F2000202A836
:1042F0001021FCF767F9FFE742F66931C2F20001CD
:1043000001200870009842F66C31C2F2000108608A
:104310002EE042F66930C2F20000007838B3FFE7C1
:10432000009842F66C31C2F200010968401AB0F5FB
:10433000FA6F1CD9FFE79DF8071047F2A120C0F2E1
:10434000000047F22923C0F20003002908BF0346FA
:1043500047F2B222C0F2000202A81021FCF732F9A3
:1043600042F66931C2F2000100200870FFE7FFE762
:1043700002A8FDF7C9FF42F6E430C2F2000000686F
:10438000002319461A4600F0DDFF9DF8070042F6AB
:104390006831C2F200010870FFE7642000F0B8FB4A
:1043A0006FE7000080B59AB0199000208DF83F00AB
:1043B0004EF20861C4F20F01086840F01000086076
:1043C000FFE74EF60820C4F20F000068C006002880
:1043D00001D4FFE7F5E744F20041C4F202010868A6
:1043E00040F00200086044F21C51C4F20201086867
:1043F00040F00200086044F2FC31C4F20201086897
:1044000020F002000860FFE7FDF7B6FA8DF83F00E4
:10441000FEF788F88DED0E0A9DF83F0042F67031E8
:10442000C2F200010978884248D0FFE701F090FA13
:104430000D9042F6E430C2F2000000684FF0FF3108
:1044400001F0E0F800210846FDF742FF9DF83F002B
:10445000012809D1FFE747F23222C0F2000210A87A
:104460001021FCF7AFF808E047F24122C0F2000249
:1044700010A81021FCF7A6F8FFE710A8FDF744FFED
:1044800042F6E430C2F200000068002319461A46E2
:1044900000F058FF42F67131C2F2000101200870AD
:1044A0000D9842F67431C2F2000108609DF83F0099
:1044B00042F67031C2F2000108704BE042F67130F2
:1044C000C2F200000078002843D0FFE701F040FA74
:1044D00042F67431C2F200010968401AB0F5FA6F71
:1044E00037D9FFE742F6E430C2F200000B900068D3
:1044F0004FF0FF3101F086F800210C910846FDF7DE
:10450000E7FEFDF73FFA014647F2A120C0F20000A6
:1045100047F22923C0F20003002908BF034647F2EF
:10452000B222C0F2000210A80A901021FCF74AF84B
:104530000A98FDF7E9FE0B980C9B006819461A468D
:1045400000F000FF0C9842F67131C2F200010870D1
:10455000FFE7FFE79DF83F00012834D1FFE79DED1D
:104560000E0AB5EE400AF1EE10FA2CDDFFE744F238
:10457000FC31C4F20201086840F00200086042F613
:10458000E430C2F20000089000684FF0FF3101F003
:1045900039F8012000210991FDF79AFE10A810308A
:1045A000079047F27122C0F200021121FCF70AF8CD
:1045B0000798FDF7A9FE0898099B006819461A4656
:1045C00000F0C0FE3EE044F2FC31C4F20201086893
:1045D00020F002000860FDF7C5FB012831D0FFE79D
:1045E00042F6E430C2F20000059000684FF0FF315F
:1045F00001F008F8012000210691FDF769FE10A8DE
:10460000103004900E9802F0DDFC024604980392EC
:104610000A46039942EC101B694681ED000B47F2F4
:104620005022C0F200021121FBF7CCFF0498FDF7E5
:104630006BFE0598069B006819461A4600F082FE3C
:10464000FFE7FFE7642000F063FADDE680B58EB097
:104650000D9000208DF80F00FFE7FDF7C9FB002843
:1046600047D0FFE742F6E430C2F2000000684FF0A6
:10467000FF3100F0C7FF00200F21FDF729FEFDF7F5
:1046800071FB0146019170B1FFE70198012810D03C
:10469000FFE70198022812D1FFE747F29720C0F206
:1046A0000000029011E047F29520C0F20000029055
:1046B0000BE047F29920C0F20000029005E047F2BB
:1046C000AA20C0F200000290FFE7029A04A800901E
:1046D0001021FBF777FF0098FDF716FE42F6E43055
:1046E000C2F200000068002319461A4600F02AFEB4
:1046F000FFE7322000F00CFAAFE7000080B590B081
:104700000F90FFE7FDF7A6F98DF817009DF8170049
:1047100040F21401C2F200010978884247D0FFE755
:1047200001F016F9049042F6E430C2F2000000688D
:104730004FF0FF3100F066FF00210846FDF7C8FD8D
:104740009DF8170048B1FFE747F21422C0F20002BB
:1047500006A81021FBF736FF08E047F28622C0F2D8
:10476000000206A81021FBF72DFFFFE706A8FDF7C2
:10477000CBFD42F6E430C2F2000000680023194687
:104780001A4600F0DFFD42F67831C2F20001012046
:104790000870049842F67C31C2F2000108609DF86E
:1047A000170040F21401C2F2000108704BE042F61B
:1047B0007830C2F200000078002843D0FFE701F013
:1047C000C7F842F67C31C2F200010968401AB0F520
:1047D0007A7F37D9FFE742F6E430C2F20000029058
:1047E00000684FF0FF3100F00DFF002103910846F3
:1047F000FDF76EFDFDF7C6F8014647F2A120C0F2B5
:10480000000047F22923C0F20003002908BF034635
:1048100047F2B222C0F2000206A801901021FBF775
:10482000D1FE0198FDF770FD0298039B00681946C0
:104830001A4600F087FD039842F67831C2F2000173
:104840000870FFE7FFE7642000F062F95AE7000014
:1048500081B00090009901F10800486000994FF084
:10486000FF308860009901F10800C860009901F1EB
:104870000800086100990020086001B0704700003E
:1048800081B0009000990020086101B070470000DD
:1048900084B0039002910298006800900098013063
:1048A00020B9FFE703980069019010E003980830F1
:1048B0000190FFE70198406800680099884205D898
:1048C000FFE7FFE7019840680190F3E7FFE70198F1
:1048D000406802994860029841688860019802998E
:1048E00088600298019948600398029908610399C9
:1048F00008680130086004B070470000DFF80C0061
:10490000016841F4700101607047000088ED00E02B
:1049100081B04FF0800080F31188BFF36F8FBFF339
:104920004F8F009040F21000C2F200000168013188
:1049300001600068012801D1FFE7FFE701B070477F
:1049400081B040F21000C2F200000168013901603C
:10495000006830B9FFE700200090009880F31188CC
:10496000FFE701B07047000080B584B00390039862
:104970000290039888B3FFE70298083802900298E3
:1049800001900198C1790020B0EBD11F23D0FFE73F
:1049900001980068E8B9FFE70199486820F00040F5
:1049A000486000F011FA0198426842F6DC31C2F228
:1049B00000010868104408600198FEF7DDFE42F629
:1049C000F831C2F2000108680130086001F0ECFA29
:1049D00000E0FFE700E0FFE7FFE704B080BD000074
:1049E0004EF21001CEF20001002008604EF21802D3
:1049F000CEF20002106040F20400C2F20000006833
:104A000044F6D352C1F26202A0FB02024FF0FF3023
:104A100000EB92104EF21402CEF20002106007205A
:104A20000860704780B582B00190019800900098AE
:104A300090F8460020B9FFE70098FFF795FF00E0E7
:104A4000FFE702B080BD000080B584B00390029102
:104A5000019203980090FFF75BFF009890F94400E3
:104A6000013028B9FFE70099002081F84400FFE7F2
:104A7000009890F94500013028B9FFE7009900201F
:104A800081F84500FFE7FFF75BFF0098806B38B9BE
:104A9000FFE7009824300299019A00F08DF800E0B9
:104AA000FFE70098FFF720F904B080BD80B582B021
:104AB000019000200090FFE7FDF790FDFDF732FD2B
:104AC0008DED000A42F68030C2F2000090ED000A3F
:104AD000B3EE041AB4EE410AF1EE10FA0DDDFFE771
:104AE0009DED000AB3EE041AB4EE410AF1EE10FA9D
:104AF00003DCFFE7FCF7B4FFFFE7009842F68031E4
:104B0000C2F200010860642000F002F8D4E700005F
:104B100080B582B0019000200090019850B1FFE76D
:104B200000F052F901980021FEF74EF901F03CFA2D
:104B3000009000E0FFE7009860B9FFE74EF60451EF
:104B4000CEF200014FF080500860BFF34F8FBFF3EB
:104B50006F8F00E0FFE702B080BD000081B00090E1
:104B600042F6F030C2F2000000680099086042F698
:104B70004840C2F2000000680099486001B07047E8
:104B800042F65441C2F20001012008607047000063
:104B900080B582B001900091019840F2E421C2F208
:104BA000000109681831FFF773FE00980121FEF734
:104BB0000BF902B080BD000080B584B00390029173
:104BC0000192FFE7039840680090009840F2E421CA
:104BD000C2F200010A68D061009880680A68106219
:104BE00008681830009A9268506008681830009A77
:104BF000906003980968886203990868013008602A
:104C0000FFE7019820B1FFE74FF0FF300290FFE788
:104C100002980199FEF7D8F804B080BD80B588B03D
:104C200007900691079805900120029007980028A8
:104C300000F08D80FFE70598C06C0699884203D28A
:104C4000FFE70698039003E00598C06C0390FFE728
:104C50000598C06A0399884277D0FFE70598006DF0
:104C6000012870D1FFE70598C06A04900398059960
:104C7000C8620598C07E0006002806D4FFE70398A6
:104C8000C0F138000599886100E0FFE705984069A8
:104C9000049901EB810240F2FC21C2F2000101EB18
:104CA000820188424DD1FFE705980430FFF792F961
:104CB00008B9FFE700E0FFE7FFE7FFE70598C06AF4
:104CC00042F26C71C2F200010968884208D9FFE71C
:104CD0000598C06A42F26C71C2F200010860FFE7F9
:104CE000FFE7FFE70598C06A00EB800040F2FC2177
:104CF000C2F2000101EB8000406801900198059A22
:104D0000906001988068059AD06005980430019AF7
:104D10009268506005980430019A9060059AD06AB4
:104D200000EB800001EB800050610598C06A00EB49
:104D3000800251F82200013041F82200FFE7FFE72E
:104D400000E0FFE700E0FFE700E0FFE700E0FFE74B
:104D500008B080BD80B582B0FEF76CFA0090009874
:104D6000012804D1FFE701F03FFA009000E0FFE7DF
:104D7000009801281FD1FFE74FF0800080F31188D1
:104D8000BFF36F8FBFF34F8F019042F6EC31C2F249
:104D900000014FF0FF30086042F61441C2F20001FA
:104DA0000120086042F64841C2F20001002008607C
:104DB00000F062F900E0FFE747F2C820C0F200000F
:104DC000006802B080BD000042F26471C2F20001CE
:104DD000086801300860704780B586B042F26470A0
:104DE000C2F20000006838B1FFE742F65441C2F257
:104DF0000001012008607BE042F65441C2F200014C
:104E000000200860FFE740F2E420C2F200000068E2
:104E1000006B05904FF0A530049005980068B0F144
:104E2000A53F12D1FFE705984068B0F1A53F0CD12E
:104E3000FFE705988068B0F1A53F06D1FFE7059828
:104E4000C068B0F1A53F0CD0FFE740F2E420C2F209
:104E5000000001683431039100680399FFF70AF9F3
:104E6000FFE7FFE7FFE742F26C70C2F20000006864
:104E70000290FFE7029800EB800140F2FC20C2F2B2
:104E8000000050F8210020B9FFE702980138029095
:104E9000F0E7FFE7029800EB800140F2FC20C2F24D
:104EA000000000EB8100019001994868406848606B
:104EB000019948680831884204D1FFE70199C86820
:104EC0004860FFE701984068C06840F2E421C2F200
:104ED00000010860FFE7029842F26C71C2F2000123
:104EE0000860FFE740F2E420C2F200000068FFE73C
:104EF00006B080BD80B594B0139000200990FDF7F6
:104F000043FCFDF7F3FCFDF7E7FCFFE7FCF72AFFA6
:104F10008DF823009DF8230040F21501C2F2000134
:104F20000978884210D0FFE742F68431C2F20001CE
:104F30000020087042F68831C2F200010860FDF7D7
:104F4000D5FCFDF7C9FCFFE79DF8230001287AD1C5
:104F5000FFE7FDF7E1FCFDF70FFC8DED090A42F6D6
:104F6000E430C2F2000000684FF0FF3100F04AFB6D
:104F700001200021FDF7ACF99DED090A9FED3D1AD6
:104F8000B4EE410AF1EE10FA28DAFFE79DED090AC6
:104F9000B5EE400AF1EE10FA20DDFFE70AA8103066
:104FA0000590099802F00EF80246059806920A4606
:104FB000069942EC101B694681ED000B47F2622214
:104FC000C0F200021121FBF7FDFA9DED090AFDF781
:104FD00021FD9DED090AFDF7BDFC1FE0FDF7A2FADA
:104FE0008DED070A0AA810300390079801F0EAFF38
:104FF0000246039804920A46049942EC101B694643
:1050000081ED000B47F25022C0F200021121FBF7A4
:10501000D9FAFDF76BFCFDF75FFCFFE70AA810303B
:10502000FDF772F942F6E430C2F200000068002396
:1050300019461A4600F086F942F68431C2F20001A0
:10504000012008700AE0FDF751FCFDF745FC42F62F
:105050008431C2F2000100200870FFE79DF82300B0
:1050600040F21501C2F2000108706420FFF750FD04
:105070004CE700BF0000164380B582B04EF60850E2
:10508000CEF20000006801904EF62051CEF20001F1
:10509000086840F47F000860086840F07F400860BE
:1050A0004EF61C51CEF20001002000900860FFF780
:1050B00097FC009840F21001C2F200010860FFF76F
:1050C0001DFC4EF63471CEF20001086840F04040FD
:1050D0000860FEF72DFCFFF77FFEFEF7E1FD00986C
:1050E00002B080BD80B582B04FF0800080F311889F
:1050F000BFF36F8FBFF34F8F009000F033FC40B1D0
:10510000FFE74EF60451CEF200014FF080500860E8
:1051100000E0FFE700200190019880F3118802B0C1
:1051200080BD000080B584B08DF80F000120019093
:10513000002100919DF80F2000F022F802900298C3
:10514000FEF724FA029804B080BD000080B586B056
:105150008DF81700049101200290002201929DF821
:105160001710049BEC46CCF80010114600F04CF8E8
:1051700003900398FEF70AFA039806B080BD00007A
:1051800080B588B0079006918DF817200020049014
:105190000798A0B3FFE707994FF0FF30B0FBF1F09D
:1051A000069988422BD3FFE707980699484310F1E8
:1051B000510F24D8FFE707980699484303900398B6
:1051C0005030FEF7E9FD04900498B0B1FFE7049871
:1051D00002900298503002900499002081F8460015
:1051E00007980699029A9DF81730DDF810C0EE4630
:1051F000CEF800C0FEF7E0F900E0FFE700E0FFE7CF
:10520000049808B080BD000080B588B084460A9834
:10521000CDF81CC00691059204938DF80F00002074
:105220000290079810B3FFE70498F8B1FFE70598DC
:1052300018B1FFE70698C8B1FFE7059818B9FFE76E
:10524000069898B9FFE7049802900299012081F826
:10525000460007980699059A9DF80F30DDF808C0BA
:10526000EE46CEF800C0FEF7A7F900E0FFE702988F
:1052700008B080BD80B584B00390029101200190F8
:10528000039800900098002856D0FFE70098C06B64
:10529000002851D0FFE70098C26B016C4FF0FF303F
:1052A000B0FBF2F0884247D3FFE7FFF731FB0099EC
:1052B0000B68C86B0A6C00FB023088600099002004
:1052C000886300990868486000990B68C86B0A6C8D
:1052D000013800FB0230C8600099FF2081F84400CB
:1052E000009981F845000298D0B9FFE7009800695D
:1052F000A0B1FFE70098103000F08CFD60B1FFE72F
:105300004EF60451CEF200014FF080500860BFF31A
:105310004F8FBFF36F8F00E0FFE700E0FFE708E08B
:1053200000981030FFF794FA00982430FFF790FAB5
:10533000FFE7FFF705FB02E000200190FFE701987F
:1053400004B080BD80B58AB008900791069205939D
:105350000020049008980090FFE7FFF7D9FA009822
:10536000806B0099C96B884204D3FFE70598022837
:1053700034D1FFE700980799059AFDF7F5FE0390F1
:105380000098406AA0B1FFE70098243000F042FD89
:1053900060B1FFE74EF60451CEF200014FF08050AD
:1053A0000860BFF34F8FBFF36F8F00E0FFE710E09F
:1053B000039860B1FFE74EF60451CEF200014FF0C2
:1053C00080500860BFF34F8FBFF36F8F00E0FFE79F
:1053D000FFE7FFF7B5FA0120099065E0069828B9C4
:1053E000FFE7FFF7ADFA002009905DE0049830B9BF
:1053F000FFE701A8FFF7B2FB0120049000E0FFE700
:10540000FFE7FFE7FFF79CFAFFF7DEFCFFF780FA04
:10541000009890F94400013028B9FFE70099002076
:1054200081F84400FFE7009890F94500013028B961
:10543000FFE70099002081F84500FFE7FFF780FAB9
:1054400001A806A900F0AEF928BBFFE70098FEF717
:1054500057FAC8B1FFE7009810300699FFF798FB9C
:105460000098FEF741FC00F09FFD60B9FFE74EF6A3
:105470000451CEF200014FF080500860BFF34F8F0F
:10548000BFF36F8FFFE705E00098FEF72DFC00F0FB
:105490008BFDFFE707E00098FEF726FC00F084FD97
:1054A0000020099000E058E709980AB080BD00008C
:1054B00080B58AB008900791069200200590089860
:1054C0000290FFE7FFF724FA0298806B01900198A1
:1054D00030B3FFE702980799FDF724FE01980138E1
:1054E0000299886302980069A0B1FFE70298103022
:1054F00000F090FC60B1FFE74EF60451CEF20001DF
:105500004FF080500860BFF34F8FBFF36F8F00E004
:10551000FFE700E0FFE7FFF713FA012009906DE0D5
:10552000069828B9FFE7FFF70BFA0020099065E01D
:10553000059830B9FFE703A8FFF710FB012005909D
:1055400000E0FFE7FFE7FFE7FFF7FAF9FFF73CFCB2
:10555000FFF7DEF9029890F94400013028B9FFE71F
:105560000299002081F84400FFE7029890F9450075
:10557000013028B9FFE70299002081F84500FFE7D4
:10558000FFF7DEF903A806A900F00CF930BBFFE72E
:105590000298FEF7A1F9D0B1FFE7029824300699EE
:1055A000FFF7F6FA0298FEF79FFB00F0FDFC60B9EA
:1055B000FFE74EF60451CEF200014FF08050086034
:1055C000BFF34F8FBFF36F8F00E0FFE705E0029856
:1055D000FEF78AFB00F0E8FCFFE70EE00298FEF71A
:1055E00083FB00F0E1FC0298FEF776F918B1FFE7C3
:1055F0000020099002E0FFE7FFE763E709980AB09F
:1056000080BD000080B58AB0089007910020069008
:10561000089903910290FFE7FFF77AF90398806BEE
:105620000190019860B3FFE70198013803998863FE
:105630000398006828B9FFE7FEF78AFC03998860A1
:1056400000E0FFE703980069A0B1FFE7039810307E
:1056500000F0E0FB60B1FFE74EF60451CEF200012E
:105660004FF080500860BFF34F8FBFF36F8F00E0A3
:10567000FFE700E0FFE7FFF763F9012009908DE005
:10568000079828B9FFE7FFF75BF90020099085E04C
:10569000069830B9FFE704A8FFF760FA01200690EA
:1056A00000E0FFE7FFE7FFE7FFF74AF9FFF78CFBB2
:1056B000FFF72EF9039890F94400013028B9FFE76D
:1056C0000399002081F84400FFE7039890F9450012
:1056D000013028B9FFE70399002081F84500FFE772
:1056E000FFF72EF904A807A900F05CF8A8BBFFE7B4
:1056F0000398FEF7F1F848B3FFE70398006850B944
:10570000FFE7FFF705F90398806800F0D5FA0290EB
:10571000FFF716F900E0FFE7039824300799FFF739
:1057200037FA0398FEF7E0FA00F03EFC60B9FFE7B5
:105730004EF60451CEF200014FF080500860BFF3E6
:105740004F8FBFF36F8F00E0FFE705E00398FEF790
:10575000CBFA00F029FCFFE71FE00398FEF7C4FA3C
:1057600000F022FC0398FEF7B7F8A0B1FFE702981B
:1057700070B1FFE7FFF7CCF80398FDF761FE0090EA
:10578000039880680099FFF749FAFFF7D9F8FFE717
:105790000020099002E0FFE7FFE73DE709980AB023
:1057A00080BD000080B586B005900491FFF7B0F889
:1057B00042F64840C2F20000006802900298059943
:1057C0004968401A019040F2E420C2F200000068EB
:1057D00090F85A0058B1FFE740F2E420C2F200000E
:1057E0000168002081F85A000120039037E00498F6
:1057F0000068013018B9FFE7002003902EE042F660
:10580000F030C2F2000000680599096888420CD0A7
:10581000FFE7029805994968884206D3FFE701200F
:10582000039004990020086017E001980499096822
:1058300088420BD2FFE7019A04990868801A086031
:105840000598FFF78BF90020039005E004990020EC
:10585000086001200390FFE7FFE7FFE7FFE7FFF79E
:105860006FF8039806B080BD10B588B0DDF82CC085
:10587000DDF828C0079006910592049307980699D1
:10588000059A049BDDF828C00B9CEE46CEF8044038
:10589000CEF800C0FDF76EFD0390039830B1FFE72E
:1058A0000398FDF719FB0120029003E04FF0FF3051
:1058B0000290FFE7029808B010BD000070B58AB0F2
:1058C000DDF840C0DDF83CC0DDF838C00990089133
:1058D000079206930020059009980899079A069B5D
:1058E000DDF838C00F9C109DEE4605AECEF80C607A
:1058F000CEF80850CEF80440CEF800C0FDF7FEFC0C
:105900000490049820B1FFE70498FDF7E5FA00E061
:10591000FFE705980AB070BD81B042F61440C2F2AC
:105920000000006818B9FFE7012000900DE042F286
:105930006470C2F20000006818B9FFE7022000900E
:1059400002E000200090FFE7FFE7009801B07047F9
:1059500081B042F64840C2F2000000680090009812
:1059600001B0704780B588B00020059042F26470A5
:10597000C2F200000068002840F01881FFE742F6FC
:105980004841C2F2000108680130049004980860A0
:105990000498D0B9FFE7FFE740F2EC22C2F2000220
:1059A0001068039040F2F421C2F200010868106010
:1059B0000398086042F6F031C2F200010868013035
:1059C0000860FEF703F9FFE700E0FFE7049842F6FE
:1059D000EC31C2F2000109688842C0F0C680FFE7DE
:1059E000FFE740F2EC20C2F200000068006840B916
:1059F000FFE742F6EC31C2F200014FF0FF300860E1
:105A0000B2E040F2EC20C2F200000068C068C0685A
:105A1000079007984068069004980699884207D234
:105A2000FFE7069842F6EC31C2F2000108609BE005
:105A3000FFE7FFE707984069029007988168C06810
:105A4000886007998868C968486002984068079923
:105A50000431884205D1FFE70798C0680299486081
:105A6000FFE707990020486102990868013808603B
:105A7000FFE70798806A08B3FFE7FFE70798806AA7
:105A800001900798C169006A88600799C869096A26
:105A900048600198406807991831884205D1FFE7AE
:105AA0000798006A01994860FFE70799002088621B
:105AB0000199086801380860FFE700E0FFE7FFE7A9
:105AC000FFE70798C06A42F26C71C2F200010968F0
:105AD000884208D9FFE70798C06A42F26C71C2F2A7
